{
  "contractName": "Financial_forensics",
  "abi": [
    {
      "constant": true,
      "inputs": [
        {
          "name": "",
          "type": "uint256"
        }
      ],
      "name": "events",
      "outputs": [
        {
          "name": "id",
          "type": "uint256"
        },
        {
          "name": "id_case",
          "type": "uint256"
        },
        {
          "name": "type_event",
          "type": "string"
        },
        {
          "name": "description",
          "type": "string"
        },
        {
          "name": "hashIPFS",
          "type": "string"
        },
        {
          "name": "timestamp",
          "type": "uint256"
        },
        {
          "name": "maker",
          "type": "address"
        }
      ],
      "payable": false,
      "stateMutability": "view",
      "type": "function"
    },
    {
      "constant": true,
      "inputs": [],
      "name": "eventsCount",
      "outputs": [
        {
          "name": "",
          "type": "uint256"
        }
      ],
      "payable": false,
      "stateMutability": "view",
      "type": "function"
    },
    {
      "constant": true,
      "inputs": [],
      "name": "investigator2",
      "outputs": [
        {
          "name": "",
          "type": "address"
        }
      ],
      "payable": false,
      "stateMutability": "view",
      "type": "function"
    },
    {
      "constant": true,
      "inputs": [],
      "name": "adminaddr",
      "outputs": [
        {
          "name": "",
          "type": "address"
        }
      ],
      "payable": false,
      "stateMutability": "view",
      "type": "function"
    },
    {
      "constant": true,
      "inputs": [],
      "name": "casesCount",
      "outputs": [
        {
          "name": "",
          "type": "uint256"
        }
      ],
      "payable": false,
      "stateMutability": "view",
      "type": "function"
    },
    {
      "constant": true,
      "inputs": [],
      "name": "investigator",
      "outputs": [
        {
          "name": "",
          "type": "address"
        }
      ],
      "payable": false,
      "stateMutability": "view",
      "type": "function"
    },
    {
      "constant": true,
      "inputs": [
        {
          "name": "",
          "type": "uint256"
        }
      ],
      "name": "cases",
      "outputs": [
        {
          "name": "id",
          "type": "uint256"
        },
        {
          "name": "name",
          "type": "string"
        },
        {
          "name": "description",
          "type": "string"
        },
        {
          "name": "entity_responsible",
          "type": "string"
        },
        {
          "name": "numberofevents",
          "type": "uint256"
        },
        {
          "name": "numberofinvestigators",
          "type": "uint256"
        },
        {
          "name": "maker",
          "type": "address"
        },
        {
          "name": "globalId",
          "type": "string"
        },
        {
          "name": "status",
          "type": "bool"
        },
        {
          "name": "timestamp",
          "type": "uint256"
        },
        {
          "name": "hashIPFS",
          "type": "string"
        }
      ],
      "payable": false,
      "stateMutability": "view",
      "type": "function"
    },
    {
      "inputs": [],
      "payable": false,
      "stateMutability": "nonpayable",
      "type": "constructor"
    },
    {
      "anonymous": false,
      "inputs": [],
      "name": "triggeredEvent",
      "type": "event"
    },
    {
      "anonymous": false,
      "inputs": [],
      "name": "updateEvent",
      "type": "event"
    },
    {
      "anonymous": false,
      "inputs": [
        {
          "indexed": true,
          "name": "_caseId",
          "type": "uint256"
        }
      ],
      "name": "reqEvent",
      "type": "event"
    },
    {
      "constant": false,
      "inputs": [
        {
          "name": "_caseId",
          "type": "uint256"
        },
        {
          "name": "_description",
          "type": "string"
        }
      ],
      "name": "updateCaseDescription",
      "outputs": [],
      "payable": false,
      "stateMutability": "nonpayable",
      "type": "function"
    },
    {
      "constant": false,
      "inputs": [
        {
          "name": "_caseId",
          "type": "uint256"
        }
      ],
      "name": "testupdateEvent",
      "outputs": [],
      "payable": false,
      "stateMutability": "nonpayable",
      "type": "function"
    },
    {
      "constant": false,
      "inputs": [
        {
          "name": "_caseId",
          "type": "uint256"
        },
        {
          "name": "_entity_responsible",
          "type": "string"
        }
      ],
      "name": "updateResponsible",
      "outputs": [],
      "payable": false,
      "stateMutability": "nonpayable",
      "type": "function"
    },
    {
      "constant": false,
      "inputs": [
        {
          "name": "_caseId",
          "type": "uint256"
        },
        {
          "name": "_investigator",
          "type": "address"
        }
      ],
      "name": "addInvestigatorCase",
      "outputs": [],
      "payable": false,
      "stateMutability": "nonpayable",
      "type": "function"
    },
    {
      "constant": true,
      "inputs": [],
      "name": "getNumberOfCases",
      "outputs": [
        {
          "name": "",
          "type": "uint256"
        }
      ],
      "payable": false,
      "stateMutability": "view",
      "type": "function"
    },
    {
      "constant": false,
      "inputs": [
        {
          "name": "_caseId",
          "type": "uint256"
        }
      ],
      "name": "getCase",
      "outputs": [
        {
          "components": [
            {
              "name": "id",
              "type": "uint256"
            },
            {
              "name": "name",
              "type": "string"
            },
            {
              "name": "description",
              "type": "string"
            },
            {
              "name": "entity_responsible",
              "type": "string"
            },
            {
              "name": "numberofevents",
              "type": "uint256"
            },
            {
              "name": "events_case",
              "type": "uint256[]"
            },
            {
              "name": "numberofinvestigators",
              "type": "uint256"
            },
            {
              "name": "investigators",
              "type": "address[]"
            },
            {
              "name": "maker",
              "type": "address"
            },
            {
              "name": "globalId",
              "type": "string"
            },
            {
              "name": "status",
              "type": "bool"
            },
            {
              "name": "timestamp",
              "type": "uint256"
            },
            {
              "name": "hashIPFS",
              "type": "string"
            }
          ],
          "name": "",
          "type": "tuple"
        }
      ],
      "payable": false,
      "stateMutability": "nonpayable",
      "type": "function"
    },
    {
      "constant": true,
      "inputs": [
        {
          "name": "_caseId",
          "type": "uint256"
        }
      ],
      "name": "getCaseGlobalID",
      "outputs": [
        {
          "name": "",
          "type": "string"
        }
      ],
      "payable": false,
      "stateMutability": "view",
      "type": "function"
    },
    {
      "constant": true,
      "inputs": [
        {
          "name": "_caseId",
          "type": "uint256"
        }
      ],
      "name": "getNumberofInvestigators",
      "outputs": [
        {
          "name": "",
          "type": "uint256"
        }
      ],
      "payable": false,
      "stateMutability": "view",
      "type": "function"
    },
    {
      "constant": true,
      "inputs": [
        {
          "name": "_caseId",
          "type": "uint256"
        }
      ],
      "name": "getCaseHash",
      "outputs": [
        {
          "name": "",
          "type": "string"
        }
      ],
      "payable": false,
      "stateMutability": "view",
      "type": "function"
    },
    {
      "constant": false,
      "inputs": [
        {
          "name": "_caseId",
          "type": "uint256"
        },
        {
          "name": "_type_event",
          "type": "string"
        },
        {
          "name": "_description",
          "type": "string"
        },
        {
          "name": "_hashIPFS",
          "type": "string"
        },
        {
          "name": "_timestamp",
          "type": "uint256"
        }
      ],
      "name": "addEvent",
      "outputs": [],
      "payable": false,
      "stateMutability": "nonpayable",
      "type": "function"
    },
    {
      "constant": true,
      "inputs": [
        {
          "name": "_caseId",
          "type": "uint256"
        }
      ],
      "name": "getNumberOfEventsCase",
      "outputs": [
        {
          "name": "",
          "type": "uint256"
        }
      ],
      "payable": false,
      "stateMutability": "view",
      "type": "function"
    },
    {
      "constant": true,
      "inputs": [
        {
          "name": "_caseId",
          "type": "uint256"
        }
      ],
      "name": "getEventsCase",
      "outputs": [
        {
          "name": "",
          "type": "uint256[]"
        }
      ],
      "payable": false,
      "stateMutability": "view",
      "type": "function"
    },
    {
      "constant": true,
      "inputs": [],
      "name": "getGlobalNumberOfEvents",
      "outputs": [
        {
          "name": "",
          "type": "uint256"
        }
      ],
      "payable": false,
      "stateMutability": "view",
      "type": "function"
    },
    {
      "constant": true,
      "inputs": [
        {
          "name": "_eventId",
          "type": "uint256"
        }
      ],
      "name": "getEvent",
      "outputs": [
        {
          "components": [
            {
              "name": "id",
              "type": "uint256"
            },
            {
              "name": "id_case",
              "type": "uint256"
            },
            {
              "name": "type_event",
              "type": "string"
            },
            {
              "name": "description",
              "type": "string"
            },
            {
              "name": "hashIPFS",
              "type": "string"
            },
            {
              "name": "timestamp",
              "type": "uint256"
            },
            {
              "name": "maker",
              "type": "address"
            }
          ],
          "name": "",
          "type": "tuple"
        }
      ],
      "payable": false,
      "stateMutability": "view",
      "type": "function"
    },
    {
      "constant": true,
      "inputs": [
        {
          "name": "_eventId",
          "type": "uint256"
        }
      ],
      "name": "getEventHash",
      "outputs": [
        {
          "name": "",
          "type": "string"
        }
      ],
      "payable": false,
      "stateMutability": "view",
      "type": "function"
    },
    {
      "constant": true,
      "inputs": [
        {
          "name": "_caseId",
          "type": "uint256"
        }
      ],
      "name": "retrieveHashProduct",
      "outputs": [
        {
          "name": "",
          "type": "bytes32"
        }
      ],
      "payable": false,
      "stateMutability": "view",
      "type": "function"
    },
    {
      "constant": false,
      "inputs": [],
      "name": "triggerContract",
      "outputs": [],
      "payable": false,
      "stateMutability": "nonpayable",
      "type": "function"
    }
  ],
  "bytecode": "0x60806040523480156200001157600080fd5b50620000fd6040518060400160405280601381526020017f456d62657a7a6c656d656e742042616e6b2031000000000000000000000000008152506040518060600160405280602e815260200162003859602e91396040518060400160405280600f81526020017f48656c6c656e696320506f6c69636500000000000000000000000000000000008152506040518060400160405280600881526020017f4850303030303031000000000000000000000000000000000000000000000000815250635dcaaffd6040518060600160405280602e8152602001620037cf602e91396200052860201b60201c565b620001e86040518060400160405280601781526020017f4d6f6e6579204c61756e646572696e67205573657220410000000000000000008152506040518060600160405280602c8152602001620037a3602c91396040518060400160405280600881526020017f496e746572706f6c0000000000000000000000000000000000000000000000008152506040518060400160405280600a81526020017f494e544141413239333400000000000000000000000000000000000000000000815250635dcf44416040518060600160405280602e8152602001620037fd602e91396200052860201b60201c565b620002d36040518060400160405280601381526020017f456d62657a7a6c656d656e742042616e6b20320000000000000000000000000081525060405180606001604052806032815260200162003743603291396040518060400160405280600781526020017f4575726f706f6c000000000000000000000000000000000000000000000000008152506040518060400160405280600981526020017f455550666e333938670000000000000000000000000000000000000000000000815250635dda67b66040518060600160405280602e81526020016200382b602e91396200052860201b60201c565b6200037060016040518060400160405280600c81526020017f4e65772045766964656e636500000000000000000000000000000000000000008152506040518060400160405280600a81526020017f53637265656e73686f74000000000000000000000000000000000000000000008152506040518060600160405280602e8152602001620038b5602e9139635dcaaffe6200072260201b60201c565b6200040d60026040518060400160405280600c81526020017f4e65772045766964656e636500000000000000000000000000000000000000008152506040518060400160405280600881526020017f446f63756d656e740000000000000000000000000000000000000000000000008152506040518060600160405280602e815260200162003775602e9139635dcab0086200072260201b60201c565b620004aa60036040518060400160405280600a81526020017f4e6577205265706f7274000000000000000000000000000000000000000000008152506040518060400160405280600681526020017f5265706f727400000000000000000000000000000000000000000000000000008152506040518060600160405280602e815260200162003887602e9139635dcab0136200072260201b60201c565b620004d1600173395be1c1eb316f82781462c4c028893e51d8b2a562000a4c60201b60201c565b6000600460006101000a81548160ff0219169083151502179055506000600460016101000a81548160ff0219169083151502179055506000600460026101000a81548160ff02191690831515021790555062000c6d565b60026000815480929190600101919050555060025460008060025481526020019081526020016000206000018190555085600080600254815260200190815260200160002060010190805190602001906200058592919062000b37565b508460008060025481526020019081526020016000206002019080519060200190620005b392919062000b37565b508360008060025481526020019081526020016000206003019080519060200190620005e192919062000b37565b506001600080600254815260200190815260200160002060060181905550600080600060025481526020019081526020016000206004018190555033600080600254815260200190815260200160002060080160006101000a81548173ffffffffffffffffffffffffffffffffffffffff021916908373ffffffffffffffffffffffffffffffffffffffff16021790555082600080600254815260200190815260200160002060090190805190602001906200069f92919062000b37565b5060016000806002548152602001908152602001600020600a0160006101000a81548160ff021916908315150217905550816000806002548152602001908152602001600020600b0181905550806000806002548152602001908152602001600020600c0190805190602001906200071992919062000b37565b50505050505050565b6000851180156200073557506002548511155b6200073f57600080fd5b600360008154809291906001019190505550600354600160006003548152602001908152602001600020600001819055508460016000600354815260200190815260200160002060010181905550836001600060035481526020019081526020016000206002019080519060200190620007bb92919062000b37565b50826001600060035481526020019081526020016000206003019080519060200190620007ea92919062000b37565b508160016000600354815260200190815260200160002060040190805190602001906200081992919062000b37565b5080600160006003548152602001908152602001600020600501819055503360016000600354815260200190815260200160002060060160006101000a81548173ffffffffffffffffffffffffffffffffffffffff021916908373ffffffffffffffffffffffffffffffffffffffff1602179055506040518060e0016040528060035481526020018681526020018581526020018481526020018381526020018281526020013373ffffffffffffffffffffffffffffffffffffffff16815250600160006003548152602001908152602001600020600082015181600001556020820151816001015560408201518160020190805190602001906200092092919062000bbe565b5060608201518160030190805190602001906200093f92919062000bbe565b5060808201518160040190805190602001906200095e92919062000bbe565b5060a0820151816005015560c08201518160060160006101000a81548173ffffffffffffffffffffffffffffffffffffffff021916908373ffffffffffffffffffffffffffffffffffffffff1602179055509050506000808681526020019081526020016000206005016003549080600181540180825580915050906001820390600052602060002001600090919290919091505550600080868152602001908152602001600020600401600081548092919060010191905055507f268e66ae95765f93db01351d19247262e2f8efaec3a7c2f7471fa7595dfe939460405160405180910390a15050505050565b60008211801562000a5f57506002548211155b62000a6957600080fd5b600080838152602001908152602001600020600601600081548092919060010191905055506000808381526020019081526020016000206007018190806001815401808255809150509060018203906000526020600020016000909192909190916101000a81548173ffffffffffffffffffffffffffffffffffffffff021916908373ffffffffffffffffffffffffffffffffffffffff160217905550507f268e66ae95765f93db01351d19247262e2f8efaec3a7c2f7471fa7595dfe939460405160405180910390a15050565b828054600181600116156101000203166002900490600052602060002090601f016020900481019282601f1062000b7a57805160ff191683800117855562000bab565b8280016001018555821562000bab579182015b8281111562000baa57825182559160200191906001019062000b8d565b5b50905062000bba919062000c45565b5090565b828054600181600116156101000203166002900490600052602060002090601f016020900481019282601f1062000c0157805160ff191683800117855562000c32565b8280016001018555821562000c32579182015b8281111562000c3157825182559160200191906001019062000c14565b5b50905062000c41919062000c45565b5090565b62000c6a91905b8082111562000c6657600081600090555060010162000c4c565b5090565b90565b612ac68062000c7d6000396000f3fe608060405234801561001057600080fd5b50600436106101585760003560e01c8063976c59cd116100c3578063bc5f05311161007c578063bc5f053114610407578063be2bb35014610425578063cf7221bd14610441578063d2b799ad14610471578063d6628f601461047b578063f09790dd146104ab57610158565b8063976c59cd1461031d578063a91a10801461034d578063ac3d84cd1461037d578063ad00487c1461039b578063b84a71cb146103b9578063bc4bff7b146103d757610158565b80636d1884e0116101155780636d1884e0146102215780638001a071146102515780638861f3e91461026f5780638f67264f1461029f578063936f5b04146102cf57806394aee487146102ff57610158565b8063071d83961461015d5780630b79143014610179578063388c3138146101af57806339e2e46f146101cb57806341b5e555146101e95780636030c16314610205575b600080fd5b61017760048036036101729190810190611f06565b6104e5565b005b610193600480360361018e9190810190611edd565b6105ce565b6040516101a6979695949392919061279f565b60405180910390f35b6101c960048036036101c49190810190611edd565b6107f8565b005b6101d3610867565b6040516101e091906126b6565b60405180910390f35b61020360048036036101fe9190810190611f42565b61086d565b005b61021f600480360361021a9190810190611f96565b6108e2565b005b61023b60048036036102369190810190611edd565b610bfe565b6040516102489190612694565b60405180910390f35b610259610ea0565b60405161026691906125f8565b60405180910390f35b61028960048036036102849190810190611edd565b610eb8565b60405161029691906126b6565b60405180910390f35b6102b960048036036102b49190810190611edd565b610ef1565b6040516102c69190612613565b60405180910390f35b6102e960048036036102e49190810190611edd565b610f79565b6040516102f69190612650565b60405180910390f35b61030761104b565b60405161031491906126b6565b60405180910390f35b61033760048036036103329190810190611edd565b611055565b6040516103449190612650565b60405180910390f35b61036760048036036103629190810190611edd565b611128565b6040516103749190612672565b60405180910390f35b610385611619565b60405161039291906125f8565b60405180910390f35b6103a3611631565b6040516103b091906126b6565b60405180910390f35b6103c1611637565b6040516103ce91906125f8565b60405180910390f35b6103f160048036036103ec9190810190611edd565b61164f565b6040516103fe9190612650565b60405180910390f35b61040f611721565b60405161041c91906126b6565b60405180910390f35b61043f600480360361043a9190810190611f42565b61172b565b005b61045b60048036036104569190810190611edd565b6117a0565b60405161046891906126b6565b60405180910390f35b6104796117d9565b005b61049560048036036104909190810190611edd565b611822565b6040516104a29190612635565b60405180910390f35b6104c560048036036104c09190810190611edd565b6118e8565b6040516104dc9b9a999897969594939291906126d1565b60405180910390f35b6000821180156104f757506002548211155b61050057600080fd5b600080838152602001908152602001600020600601600081548092919060010191905055506000808381526020019081526020016000206007018190806001815401808255809150509060018203906000526020600020016000909192909190916101000a81548173ffffffffffffffffffffffffffffffffffffffff021916908373ffffffffffffffffffffffffffffffffffffffff160217905550507f268e66ae95765f93db01351d19247262e2f8efaec3a7c2f7471fa7595dfe939460405160405180910390a15050565b6001602052806000526040600020600091509050806000015490806001015490806002018054600181600116156101000203166002900480601f0160208091040260200160405190810160405280929190818152602001828054600181600116156101000203166002900480156106865780601f1061065b57610100808354040283529160200191610686565b820191906000526020600020905b81548152906001019060200180831161066957829003601f168201915b505050505090806003018054600181600116156101000203166002900480601f0160208091040260200160405190810160405280929190818152602001828054600181600116156101000203166002900480156107245780601f106106f957610100808354040283529160200191610724565b820191906000526020600020905b81548152906001019060200180831161070757829003601f168201915b505050505090806004018054600181600116156101000203166002900480601f0160208091040260200160405190810160405280929190818152602001828054600181600116156101000203166002900480156107c25780601f10610797576101008083540402835291602001916107c2565b820191906000526020600020905b8154815290600101906020018083116107a557829003601f168201915b5050505050908060050154908060060160009054906101000a900473ffffffffffffffffffffffffffffffffffffffff16905087565b60008111801561080a57506002548111155b61081357600080fd5b600080828152602001908152602001600020600401600081548092919060010191905055507f268e66ae95765f93db01351d19247262e2f8efaec3a7c2f7471fa7595dfe939460405160405180910390a150565b60035481565b60008211801561087f57506002548211155b61088857600080fd5b8060008084815260200190815260200160002060030190805190602001906108b1929190611c67565b507f268e66ae95765f93db01351d19247262e2f8efaec3a7c2f7471fa7595dfe939460405160405180910390a15050565b6000851180156108f457506002548511155b6108fd57600080fd5b600360008154809291906001019190505550600354600160006003548152602001908152602001600020600001819055508460016000600354815260200190815260200160002060010181905550836001600060035481526020019081526020016000206002019080519060200190610977929190611c67565b508260016000600354815260200190815260200160002060030190805190602001906109a4929190611c67565b508160016000600354815260200190815260200160002060040190805190602001906109d1929190611c67565b5080600160006003548152602001908152602001600020600501819055503360016000600354815260200190815260200160002060060160006101000a81548173ffffffffffffffffffffffffffffffffffffffff021916908373ffffffffffffffffffffffffffffffffffffffff1602179055506040518060e0016040528060035481526020018681526020018581526020018481526020018381526020018281526020013373ffffffffffffffffffffffffffffffffffffffff1681525060016000600354815260200190815260200160002060008201518160000155602082015181600101556040820151816002019080519060200190610ad6929190611ce7565b506060820151816003019080519060200190610af3929190611ce7565b506080820151816004019080519060200190610b10929190611ce7565b5060a0820151816005015560c08201518160060160006101000a81548173ffffffffffffffffffffffffffffffffffffffff021916908373ffffffffffffffffffffffffffffffffffffffff1602179055509050506000808681526020019081526020016000206005016003549080600181540180825580915050906001820390600052602060002001600090919290919091505550600080868152602001908152602001600020600401600081548092919060010191905055507f268e66ae95765f93db01351d19247262e2f8efaec3a7c2f7471fa7595dfe939460405160405180910390a15050505050565b610c06611d67565b600082118015610c1857506003548211155b610c2157600080fd5b600160008381526020019081526020016000206040518060e00160405290816000820154815260200160018201548152602001600282018054600181600116156101000203166002900480601f016020809104026020016040519081016040528092919081815260200182805460018160011615610100020316600290048015610cec5780601f10610cc157610100808354040283529160200191610cec565b820191906000526020600020905b815481529060010190602001808311610ccf57829003601f168201915b50505050508152602001600382018054600181600116156101000203166002900480601f016020809104026020016040519081016040528092919081815260200182805460018160011615610100020316600290048015610d8e5780601f10610d6357610100808354040283529160200191610d8e565b820191906000526020600020905b815481529060010190602001808311610d7157829003601f168201915b50505050508152602001600482018054600181600116156101000203166002900480601f016020809104026020016040519081016040528092919081815260200182805460018160011615610100020316600290048015610e305780601f10610e0557610100808354040283529160200191610e30565b820191906000526020600020905b815481529060010190602001808311610e1357829003601f168201915b50505050508152602001600582015481526020016006820160009054906101000a900473ffffffffffffffffffffffffffffffffffffffff1673ffffffffffffffffffffffffffffffffffffffff1673ffffffffffffffffffffffffffffffffffffffff16815250509050919050565b73395be1c1eb316f82781462c4c028893e51d8b2a581565b60008082118015610ecb57506002548211155b610ed457600080fd5b600080838152602001908152602001600020600601549050919050565b6060600082118015610f0557506002548211155b610f0e57600080fd5b600080838152602001908152602001600020600501805480602002602001604051908101604052809291908181526020018280548015610f6d57602002820191906000526020600020905b815481526020019060010190808311610f59575b50505050509050919050565b6060600082118015610f8d57506002548211155b610f9657600080fd5b6000808381526020019081526020016000206009018054600181600116156101000203166002900480601f01602080910402602001604051908101604052809291908181526020018280546001816001161561010002031660029004801561103f5780601f106110145761010080835404028352916020019161103f565b820191906000526020600020905b81548152906001019060200180831161102257829003601f168201915b50505050509050919050565b6000600254905090565b606060008211801561106957506003548211155b61107257600080fd5b600160008381526020019081526020016000206004018054600181600116156101000203166002900480601f01602080910402602001604051908101604052809291908181526020018280546001816001161561010002031660029004801561111c5780601f106110f15761010080835404028352916020019161111c565b820191906000526020600020905b8154815290600101906020018083116110ff57829003601f168201915b50505050509050919050565b611130611dba565b60008211801561114257506002548211155b61114b57600080fd5b600080838152602001908152602001600020604051806101a001604052908160008201548152602001600182018054600181600116156101000203166002900480601f01602080910402602001604051908101604052809291908181526020018280546001816001161561010002031660029004801561120c5780601f106111e15761010080835404028352916020019161120c565b820191906000526020600020905b8154815290600101906020018083116111ef57829003601f168201915b50505050508152602001600282018054600181600116156101000203166002900480601f0160208091040260200160405190810160405280929190818152602001828054600181600116156101000203166002900480156112ae5780601f10611283576101008083540402835291602001916112ae565b820191906000526020600020905b81548152906001019060200180831161129157829003601f168201915b50505050508152602001600382018054600181600116156101000203166002900480601f0160208091040260200160405190810160405280929190818152602001828054600181600116156101000203166002900480156113505780601f1061132557610100808354040283529160200191611350565b820191906000526020600020905b81548152906001019060200180831161133357829003601f168201915b5050505050815260200160048201548152602001600582018054806020026020016040519081016040528092919081815260200182805480156113b257602002820191906000526020600020905b81548152602001906001019080831161139e575b50505050508152602001600682015481526020016007820180548060200260200160405190810160405280929190818152602001828054801561144a57602002820191906000526020600020905b8160009054906101000a900473ffffffffffffffffffffffffffffffffffffffff1673ffffffffffffffffffffffffffffffffffffffff1681526020019060010190808311611400575b505050505081526020016008820160009054906101000a900473ffffffffffffffffffffffffffffffffffffffff1673ffffffffffffffffffffffffffffffffffffffff1673ffffffffffffffffffffffffffffffffffffffff168152602001600982018054600181600116156101000203166002900480601f0160208091040260200160405190810160405280929190818152602001828054600181600116156101000203166002900480156115425780601f1061151757610100808354040283529160200191611542565b820191906000526020600020905b81548152906001019060200180831161152557829003601f168201915b50505050508152602001600a820160009054906101000a900460ff16151515158152602001600b8201548152602001600c82018054600181600116156101000203166002900480601f0160208091040260200160405190810160405280929190818152602001828054600181600116156101000203166002900480156116095780601f106115de57610100808354040283529160200191611609565b820191906000526020600020905b8154815290600101906020018083116115ec57829003601f168201915b5050505050815250509050919050565b73e0f5206bbd039e7b0592d8918820024e2a74322281565b60025481565b73e0f5206bbd039e7b0592d8918820024e2a7437b981565b606060008211801561166357506002548211155b61166c57600080fd5b600080838152602001908152602001600020600c018054600181600116156101000203166002900480601f0160208091040260200160405190810160405280929190818152602001828054600181600116156101000203166002900480156117155780601f106116ea57610100808354040283529160200191611715565b820191906000526020600020905b8154815290600101906020018083116116f857829003601f168201915b50505050509050919050565b6000600354905090565b60008211801561173d57506002548211155b61174657600080fd5b80600080848152602001908152602001600020600201908051906020019061176f929190611c67565b507f268e66ae95765f93db01351d19247262e2f8efaec3a7c2f7471fa7595dfe939460405160405180910390a15050565b600080821180156117b357506002548211155b6117bc57600080fd5b600080838152602001908152602001600020600401549050919050565b6001600460006101000a81548160ff0219169083151502179055507fc593eaec92f167425b63e187f5049afb644916f3e7d3de263bcac1e207c6485c60405160405180910390a1565b60004360003660008086815260200190815260200160002060000154600080878152602001908152602001600020600101600080888152602001908152602001600020600201600080898152602001908152602001600020600401546000808a815260200190815260200160002060080160009054906101000a900473ffffffffffffffffffffffffffffffffffffffff166040516020016118cb989796959493929190612581565b604051602081830303815290604052805190602001209050919050565b6000602052806000526040600020600091509050806000015490806001018054600181600116156101000203166002900480601f01602080910402602001604051908101604052809291908181526020018280546001816001161561010002031660029004801561199a5780601f1061196f5761010080835404028352916020019161199a565b820191906000526020600020905b81548152906001019060200180831161197d57829003601f168201915b505050505090806002018054600181600116156101000203166002900480601f016020809104026020016040519081016040528092919081815260200182805460018160011615610100020316600290048015611a385780601f10611a0d57610100808354040283529160200191611a38565b820191906000526020600020905b815481529060010190602001808311611a1b57829003601f168201915b505050505090806003018054600181600116156101000203166002900480601f016020809104026020016040519081016040528092919081815260200182805460018160011615610100020316600290048015611ad65780601f10611aab57610100808354040283529160200191611ad6565b820191906000526020600020905b815481529060010190602001808311611ab957829003601f168201915b5050505050908060040154908060060154908060080160009054906101000a900473ffffffffffffffffffffffffffffffffffffffff1690806009018054600181600116156101000203166002900480601f016020809104026020016040519081016040528092919081815260200182805460018160011615610100020316600290048015611ba65780601f10611b7b57610100808354040283529160200191611ba6565b820191906000526020600020905b815481529060010190602001808311611b8957829003601f168201915b50505050509080600a0160009054906101000a900460ff169080600b01549080600c018054600181600116156101000203166002900480601f016020809104026020016040519081016040528092919081815260200182805460018160011615610100020316600290048015611c5d5780601f10611c3257610100808354040283529160200191611c5d565b820191906000526020600020905b815481529060010190602001808311611c4057829003601f168201915b505050505090508b565b828054600181600116156101000203166002900490600052602060002090601f016020900481019282601f10611ca857805160ff1916838001178555611cd6565b82800160010185558215611cd6579182015b82811115611cd5578251825591602001919060010190611cba565b5b509050611ce39190611e3a565b5090565b828054600181600116156101000203166002900490600052602060002090601f016020900481019282601f10611d2857805160ff1916838001178555611d56565b82800160010185558215611d56579182015b82811115611d55578251825591602001919060010190611d3a565b5b509050611d639190611e3a565b5090565b6040518060e00160405280600081526020016000815260200160608152602001606081526020016060815260200160008152602001600073ffffffffffffffffffffffffffffffffffffffff1681525090565b604051806101a001604052806000815260200160608152602001606081526020016060815260200160008152602001606081526020016000815260200160608152602001600073ffffffffffffffffffffffffffffffffffffffff1681526020016060815260200160001515815260200160008152602001606081525090565b611e5c91905b80821115611e58576000816000905550600101611e40565b5090565b90565b600081359050611e6e81612a5e565b92915050565b600082601f830112611e8557600080fd5b8135611e98611e9382612850565b612823565b91508082526020830160208301858383011115611eb457600080fd5b611ebf8382846129d0565b50505092915050565b600081359050611ed781612a75565b92915050565b600060208284031215611eef57600080fd5b6000611efd84828501611ec8565b91505092915050565b60008060408385031215611f1957600080fd5b6000611f2785828601611ec8565b9250506020611f3885828601611e5f565b9150509250929050565b60008060408385031215611f5557600080fd5b6000611f6385828601611ec8565b925050602083013567ffffffffffffffff811115611f8057600080fd5b611f8c85828601611e74565b9150509250929050565b600080600080600060a08688031215611fae57600080fd5b6000611fbc88828901611ec8565b955050602086013567ffffffffffffffff811115611fd957600080fd5b611fe588828901611e74565b945050604086013567ffffffffffffffff81111561200257600080fd5b61200e88828901611e74565b935050606086013567ffffffffffffffff81111561202b57600080fd5b61203788828901611e74565b925050608061204888828901611ec8565b9150509295509295909350565b60006120618383612085565b60208301905092915050565b6000612079838361254c565b60208301905092915050565b61208e8161297e565b82525050565b61209d8161297e565b82525050565b6120b46120af8261297e565b612a12565b82525050565b60006120c5826128b5565b6120cf8185612913565b93506120da8361287c565b8060005b8381101561210b5781516120f28882612055565b97506120fd836128ec565b9250506001810190506120de565b5085935050505092915050565b6000612123826128cb565b61212d8185612935565b935061213883612896565b8060005b83811015612169578151612150888261206d565b975061215b83612906565b92505060018101905061213c565b5085935050505092915050565b6000612181826128c0565b61218b8185612924565b935061219683612889565b8060005b838110156121c75781516121ae888261206d565b97506121b9836128f9565b92505060018101905061219a565b5085935050505092915050565b6121dd81612990565b82525050565b6121ec81612990565b82525050565b6121fb8161299c565b82525050565b600061220d8385612946565b935061221a8385846129d0565b82840190509392505050565b6000612231826128e1565b61223b8185612962565b935061224b8185602086016129df565b61225481612a40565b840191505092915050565b600061226a826128d6565b6122748185612951565b93506122848185602086016129df565b61228d81612a40565b840191505092915050565b60006122a3826128d6565b6122ad8185612962565b93506122bd8185602086016129df565b6122c681612a40565b840191505092915050565b6000815460018116600081146122ee576001811461231357612357565b607f60028304166122ff8187612973565b955060ff1983168652808601935050612357565b600282046123218187612973565b955061232c856128a3565b60005b8281101561234e5781548189015260018201915060208101905061232f565b82880195505050505b505092915050565b60006101a083016000830151612378600086018261254c565b5060208301518482036020860152612390828261225f565b915050604083015184820360408601526123aa828261225f565b915050606083015184820360608601526123c4828261225f565b91505060808301516123d9608086018261254c565b5060a083015184820360a08601526123f18282612176565b91505060c083015161240660c086018261254c565b5060e083015184820360e086015261241e82826120ba565b915050610100830151612435610100860182612085565b5061012083015184820361012086015261244f828261225f565b9150506101408301516124666101408601826121d4565b5061016083015161247b61016086018261254c565b50610180830151848203610180860152612495828261225f565b9150508091505092915050565b600060e0830160008301516124ba600086018261254c565b5060208301516124cd602086018261254c565b50604083015184820360408601526124e5828261225f565b915050606083015184820360608601526124ff828261225f565b91505060808301518482036080860152612519828261225f565b91505060a083015161252e60a086018261254c565b5060c083015161254160c0860182612085565b508091505092915050565b612555816129c6565b82525050565b612564816129c6565b82525050565b61257b612576826129c6565b612a36565b82525050565b600061258d828b61256a565b60208201915061259e82898b612201565b91506125aa828861256a565b6020820191506125ba82876122d1565b91506125c682866122d1565b91506125d2828561256a565b6020820191506125e282846120a3565b6014820191508190509998505050505050505050565b600060208201905061260d6000830184612094565b92915050565b6000602082019050818103600083015261262d8184612118565b905092915050565b600060208201905061264a60008301846121f2565b92915050565b6000602082019050818103600083015261266a8184612226565b905092915050565b6000602082019050818103600083015261268c818461235f565b905092915050565b600060208201905081810360008301526126ae81846124a2565b905092915050565b60006020820190506126cb600083018461255b565b92915050565b6000610160820190506126e7600083018e61255b565b81810360208301526126f9818d612298565b9050818103604083015261270d818c612298565b90508181036060830152612721818b612298565b9050612730608083018a61255b565b61273d60a083018961255b565b61274a60c0830188612094565b81810360e083015261275c8187612298565b905061276c6101008301866121e3565b61277a61012083018561255b565b81810361014083015261278d8184612298565b90509c9b505050505050505050505050565b600060e0820190506127b4600083018a61255b565b6127c1602083018961255b565b81810360408301526127d38188612298565b905081810360608301526127e78187612298565b905081810360808301526127fb8186612298565b905061280a60a083018561255b565b61281760c0830184612094565b98975050505050505050565b6000604051905081810181811067ffffffffffffffff8211171561284657600080fd5b8060405250919050565b600067ffffffffffffffff82111561286757600080fd5b601f19601f8301169050602081019050919050565b6000602082019050919050565b6000602082019050919050565b6000602082019050919050565b60008160005260206000209050919050565b600081519050919050565b600081519050919050565b600081519050919050565b600081519050919050565b600081519050919050565b6000602082019050919050565b6000602082019050919050565b6000602082019050919050565b600082825260208201905092915050565b600082825260208201905092915050565b600082825260208201905092915050565b600081905092915050565b600082825260208201905092915050565b600082825260208201905092915050565b600081905092915050565b6000612989826129a6565b9050919050565b60008115159050919050565b6000819050919050565b600073ffffffffffffffffffffffffffffffffffffffff82169050919050565b6000819050919050565b82818337600083830152505050565b60005b838110156129fd5780820151818401526020810190506129e2565b83811115612a0c576000848401525b50505050565b6000612a1d82612a24565b9050919050565b6000612a2f82612a51565b9050919050565b6000819050919050565b6000601f19601f8301169050919050565b60008160601b9050919050565b612a678161297e565b8114612a7257600080fd5b50565b612a7e816129c6565b8114612a8957600080fd5b5056fea265627a7a723058207a1c39738d04c03f2c732a6a0d1d21600ecd651ced38eeabd7761f1e576b1c746c6578706572696d656e74616cf50037496e7665737469676174696f6e20666f7220656d62657a7a6c656d656e7420696e20616e204575726f7065616e2042616e6b516d626b62466350704d4c52354d54694b747350387a7051594e39677257736169544b4756324339624145695645496e7665737469676174696f6e20666f72206d6f6e6579206c61756e646572696e6720737573706563742041516d593878485a7a6846316447444a4d613466377369553353505457397048467078583878784a7a713659315734516d57356f5056543638726968554c4a397938737a726565394a72726a71726878746e35746a6b656f516b757746516d4e625258476f75647555475633316d4d596870783344714534436134384d354b6d70674b7856443856366f7a496e7665737469676174696f6e20666f7220656d62657a7a6c656d656e7420696e206120477265656b2042616e6b516d627147416a724a5639796265624b38545871354d4332783446575861587137735070396a53436a63414e624b516d624b3673744a6b65336b516f48387433646932717a7a4331725252766f586f52736e43325747765a56565650",
  "source": "pragma solidity ^0.5.0;\npragma experimental ABIEncoderV2;\n\n/* \nCOPYRIGHT FRAN CASINO. 2019.\nREQUIRE CLAUSES DEACTIVATED, TO BE DEFINED ACCORDING TO EACH SITUATION\nSC FOR FINANCIAL FORENSIC COC\n*/\n\ncontract Financial_forensics{\n\n    \n    struct Case {\n        uint id;\n        string name;\n        string description;  // for QOs or conditions, location, description\n        string entity_responsible;\n        uint numberofevents;\n        uint [] events_case; // the ID of the events of the investigation\n        uint numberofinvestigators;\n        address [] investigators; // investigators enrolled to the case\n        address maker; // who  created\n        string globalId; // global id in the case of external systems \n        bool status; // open case, closed case\n        uint timestamp; // creation\n        string hashIPFS; // refernce to manufacturing description, serial number, IMEI\n    }\n    // key is a uint, later corresponding to the product id\n    // what we store (the value) is a Case\n    // the information of this mapping is the set of cases.\n    mapping(uint => Case) public cases; // public, so that w can access with a free function \n\n    struct Event {\n        uint id;\n        uint id_case;\n        string type_event; // event category, eg. new evidence, new investigator added, new tool used, new report added.\n        string description; // description\n        string hashIPFS; // hash of event\n        uint timestamp;\n        address maker; // who  updates\n    }\n\n    mapping(uint => Event) public events; // public, so that w can access with a free function \n    // since mappings cant be looped and is difficult the have a count like array\n    // we need a var to store the coutings  \n    // useful also to iterate the mapping \n\n    uint public casesCount;\n    uint public eventsCount;\n\n    //PARTICIPANTS SHOULD BE FROM THE LIST OF STAKEHOLDERS IF ANY\n    //address constant public stake5 = 0xE0F5206bbd039E7B0592D8918820024E2a743445;\n    //address constant public stake4 = 0x50e00dE2c5cC4e456Cf234FCb1A0eFA367ED016E;\n    //address constant public stake3 = 0x1533234Bd32f59909E1D471CF0C9BC80C92c97d2;\n    address constant public investigator2 = 0x395BE1C1Eb316f82781462C4C028893e51d8b2a5;\n    address constant public investigator = 0xE0f5206BBD039e7b0592d8918820024e2a7437b9; // example of investigator\n    address constant public adminaddr = 0xE0F5206bbd039e7b0592d8918820024E2A743222; // admin, current\n\n    bool private  triggered;\n    bool private  delivery;\n    bool private  received;\n\n    //Processes public p;\n    //Stakeholders public s;\n\n    // event, voted event. this will trigger when we want\n    //  when a vote is cast for example, in the vote function. \n    event triggeredEvent (  // triggers new accepted order \n    );\n\n    event updateEvent ( // triggers product status change\n    );\n\n    event reqEvent (\n        uint indexed _caseId\n    );\n\n\n    constructor () public { // constructor, creates cases. we map starting from id=1,  hardcoded values of all\n        addCase(\"Embezzlement Bank 1\",\"Investigation for embezzlement in a Greek Bank\",\"Hellenic Police\",\"HP000001\",1573564413,\"QmY8xHZzhF1dGDJMa4f7siU3SPTW9pHFpxX8xxJzq6Y1W4\");\n        addCase(\"Money Laundering User A\",\"Investigation for money laundering suspect A\",\"Interpol\",\"INTAAA2934\",1573864513,\"QmW5oPVT68rihULJ9y8szree9Jrrjqrhxtn5tjkeoQkuwF\");\n        addCase(\"Embezzlement Bank 2\",\"Investigation for embezzlement in an European Bank\",\"Europol\",\"EUPfn398g\",1574594486,\"QmNbRXGouduUGV31mMYhpx3DqE4Ca48M5KmpgKxVD8V6oz\");\n        addEvent(1,\"New Evidence\", \"Screenshot\",\"QmbK6stJke3kQoH8t3di2qzzC1rRRvoXoRsnC2WGvZVVVP\",1573564414); //\n        addEvent(2,\"New Evidence\", \"Document\",\"QmbkbFcPpMLR5MTiKtsP8zpQYN9grWsaiTKGV2C9bAEiVE\",1573564424); //\n        addEvent(3,\"New Report\", \"Report\",\"QmbqGAjrJV9ybebK8TXq5MC2x4FWXaXq7sPp9jSCjcANbK\",1573564435); //\n        addInvestigatorCase(1, 0x395BE1C1Eb316f82781462C4C028893e51d8b2a5);\n        //addComponent();\n        triggered=false;\n        delivery=false;\n        received=false;\n    }\n\n    //CASE  OPERATIONS******************************************\n    // enables CASE creation\n    // get CASE\n    // get total for externally looping the mapping\n    // update others.\n\n    // add CASE to mapping\n    // our contract to be able to do that, from constructor\n    // otherwise the conditions of the accepted contract could change\n    function addCase (string memory _name, string memory _description, string memory _entity_responsible, string memory _globalID, uint _timestamp, string memory _hashIpfs) private {\n        //require valid investigator.\n\n        casesCount ++; // inc count at the begining. represents ID also. \n        cases[casesCount].id = casesCount; \n        cases[casesCount].name = _name;\n        cases[casesCount].description = _description;\n        cases[casesCount].entity_responsible = _entity_responsible;\n        cases[casesCount].numberofinvestigators = 1;\n        cases[casesCount].numberofevents = 0;                      \n        cases[casesCount].maker = msg.sender;\n        cases[casesCount].globalId = _globalID;\n        cases[casesCount].status = true;\n\t    cases[casesCount].timestamp = _timestamp;\n        cases[casesCount].hashIPFS = _hashIpfs;\n\n    }\n\n     // only specific stakeholders, can be changed\n    function updateCaseDescription (uint _caseId, string memory _description) public { \n        require(_caseId > 0 && _caseId <= casesCount); \n        //require(_caseId.maker == msg.sender);\n\n        cases[_caseId].description = _description;  // update conditions\n        emit updateEvent(); // trigger event \n    }\n\n\n     // only specific stakeholders, can be changed\n    function testupdateEvent (uint _caseId) public { \n        require(_caseId > 0 && _caseId <= casesCount); \n        //require(_caseId.maker == msg.sender);\n\n        cases[_caseId].numberofevents ++;  // update conditions\n        emit updateEvent(); // trigger event \n    }\n\n    function updateResponsible (uint _caseId, string memory _entity_responsible) public { \n\t\t//require(_caseId.maker == msg.sender);        \n\t\trequire(_caseId > 0 && _caseId <= casesCount); \n\n        cases[_caseId].entity_responsible = _entity_responsible;  // update conditions\n        emit updateEvent(); // trigger event \n    }\n\n    function addInvestigatorCase (uint _caseId, address _investigator) public { \n        require(_caseId > 0 && _caseId <= casesCount); \n        //require(_caseId.maker == msg.sender);\n\n        cases[_caseId].numberofinvestigators ++;  // update conditions\n        cases[_caseId].investigators.push(_investigator);\n        emit updateEvent(); // trigger event \n    }\n     \n    // returns the number of products, needed to iterate the mapping and to know info about the order.\n    function getNumberOfCases () public view returns (uint){\n        return casesCount;\n    }\n    // function to check the contents of the contract, the customer will check it and later will trigger if correct\n    // only customer can check it \n    // customer will loop outside for this, getting the number of products before with getNumberOfProducts\n    function getCase (uint _caseId) public returns (Case memory) {\n        require(_caseId > 0 && _caseId <= casesCount); \n\n        return cases[_caseId];\n        emit reqEvent(_caseId); // trigger event \n    }\n\n    function getCaseGlobalID (uint _caseId) public view returns (string memory) {\n        require(_caseId > 0 && _caseId <= casesCount); \n\n        return cases[_caseId].globalId;\n    }\n \n    function getNumberofInvestigators (uint _caseId) public view returns (uint) {\n       require(_caseId > 0 && _caseId <= casesCount); \n\n        return cases[_caseId].numberofinvestigators;\n    }\n\n\n    function getCaseHash (uint _caseId) public view returns (string memory) { // ipfs directory\n        require(_caseId > 0 && _caseId <= casesCount);  \n\n        return cases[_caseId].hashIPFS;\n    }\n    \n    //EVENT OPERATIONS********************************************\n\n    function addEvent (uint _caseId, string memory _type_event, string memory _description, string memory _hashIPFS, uint _timestamp) public {  // acts as update location\n        require(_caseId > 0 && _caseId <= casesCount); \n        //require(valid investigator);\n\n\n        eventsCount ++; // inc count at the begining. represents ID also. \n        events[eventsCount].id = eventsCount; \n        events[eventsCount].id_case = _caseId;\n        events[eventsCount].type_event = _type_event;\n        events[eventsCount].description = _description;\n        events[eventsCount].hashIPFS = _hashIPFS;\n        events[eventsCount].timestamp = _timestamp; \n        events[eventsCount].maker = msg.sender;   \n        events[eventsCount] = Event(eventsCount,_caseId,_type_event,_description,_hashIPFS,_timestamp, msg.sender);\n        cases[_caseId].events_case.push(eventsCount); // we store the trace reference in the corresponding event\n        cases[_caseId].numberofevents++;\n        //this will give us the set of ID traces about our caseid\n        emit updateEvent();\n    }\n\n    // returns the number of  events for specific case\n    function getNumberOfEventsCase (uint _caseId) public view returns (uint) {\n        require(_caseId > 0 && _caseId <= casesCount); \n        \n        return cases[_caseId].numberofevents;\n    }\n\n        // get the array of traces of a product, later we can loop them using getTrace to obtain the data\n    function getEventsCase (uint _caseId) public view returns (uint [] memory)  {\n        require(_caseId > 0 && _caseId <= casesCount); \n\n        return cases[_caseId].events_case;\n    }\n\n   \n    //global events. useful for generic statistical purposes\n    function getGlobalNumberOfEvents () public view returns (uint) {\n        \n        return eventsCount;\n    }\n\n\n    // get an specific event\n    function getEvent (uint _eventId) public view returns (Event memory)  {\n        require(_eventId > 0 && _eventId <= eventsCount); \n\n        return events[_eventId];\n    }\n\n    function getEventHash (uint _eventId) public view returns (string memory) { // ipfs directory\n        require(_eventId > 0 && _eventId <= eventsCount);  \n\n        return events[_eventId].hashIPFS;\n    }\n\n\n    //EVENT AND SC OPERATIONS********************************************************\n    // computes hash of transaction\n    // several event triggers\n\n    function retrieveHashProduct (uint _caseId) public view returns (bytes32){ \n    \t//require(_caseId > 0 && _caseId <= casesCount); \n        //computehash according to unique characteristics\n        // hash has to identify a unique transaction so timestamp and locations and products should be used.\n        // this example hashes a transaction as a whole. This hash is different from the IPFS hash and therefore can be used for other purposes\n        return keccak256(abi.encodePacked(block.number,msg.data, cases[_caseId].id, cases[_caseId].name, cases[_caseId].description, cases[_caseId].numberofevents, cases[_caseId].maker));\n    }\n\n     //this function triggers the contract\n    function triggerContract () public { \n        triggered=true;\n        emit triggeredEvent(); // trigger event \n\n    }\n\n\n}\n",
  "sourcePath": "/home/fran/Desktop/financial_forensics/contracts/Financial_forensics.sol",
  "compiler": {
    "name": "solc",
    "version": "0.5.8+commit.23d335f2.Emscripten.clang"
  },
  "schemaVersion": "3.0.11",
  "updatedAt": "2020-06-19T08:59:34.331Z",
  "devdoc": {
    "methods": {}
  },
  "userdoc": {
    "methods": {}
  }
}